{
  "contractName": "Structresult",
  "abi": [
    {
      "inputs": [
        {
          "internalType": "uint256",
          "name": "bid",
          "type": "uint256"
        },
        {
          "internalType": "string",
          "name": "stid",
          "type": "string"
        },
        {
          "internalType": "string",
          "name": "subid",
          "type": "string"
        },
        {
          "internalType": "string",
          "name": "mark",
          "type": "string"
        },
        {
          "internalType": "string",
          "name": "date",
          "type": "string"
        }
      ],
      "name": "addmark",
      "outputs": [],
      "stateMutability": "nonpayable",
      "type": "function"
    }
  ],
  "bytecode": "0x608060405234801561001057600080fd5b506106a9806100206000396000f3fe608060405234801561001057600080fd5b506004361061002b5760003560e01c8063d3ba880214610030575b600080fd5b61004a6004803603810190610045919061029f565b61004c565b005b60006040518060a0016040528087815260200186815260200185815260200184815260200183815250905060008190806001815401808255809150506001900390600052602060002090600502016000909190919091506000820151816000015560208201518160010190816100c291906105a1565b5060408201518160020190816100d891906105a1565b5060608201518160030190816100ee91906105a1565b50608082015181600401908161010491906105a1565b505050505050505050565b6000604051905090565b600080fd5b600080fd5b6000819050919050565b61013681610123565b811461014157600080fd5b50565b6000813590506101538161012d565b92915050565b600080fd5b600080fd5b6000601f19601f8301169050919050565b7f4e487b7100000000000000000000000000000000000000000000000000000000600052604160045260246000fd5b6101ac82610163565b810181811067ffffffffffffffff821117156101cb576101ca610174565b5b80604052505050565b60006101de61010f565b90506101ea82826101a3565b919050565b600067ffffffffffffffff82111561020a57610209610174565b5b61021382610163565b9050602081019050919050565b82818337600083830152505050565b600061024261023d846101ef565b6101d4565b90508281526020810184848401111561025e5761025d61015e565b5b610269848285610220565b509392505050565b600082601f83011261028657610285610159565b5b813561029684826020860161022f565b91505092915050565b600080600080600060a086880312156102bb576102ba610119565b5b60006102c988828901610144565b955050602086013567ffffffffffffffff8111156102ea576102e961011e565b5b6102f688828901610271565b945050604086013567ffffffffffffffff8111156103175761031661011e565b5b61032388828901610271565b935050606086013567ffffffffffffffff8111156103445761034361011e565b5b61035088828901610271565b925050608086013567ffffffffffffffff8111156103715761037061011e565b5b61037d88828901610271565b9150509295509295909350565b600081519050919050565b7f4e487b7100000000000000000000000000000000000000000000000000000000600052602260045260246000fd5b600060028204905060018216806103dc57607f821691505b6020821081036103ef576103ee610395565b5b50919050565b60008190508160005260206000209050919050565b60006020601f8301049050919050565b600082821b905092915050565b6000600883026104577fffffffffffffffffffffffffffffffffffffffffffffffffffffffffffffffff8261041a565b610461868361041a565b95508019841693508086168417925050509392505050565b6000819050919050565b600061049e61049961049484610123565b610479565b610123565b9050919050565b6000819050919050565b6104b883610483565b6104cc6104c4826104a5565b848454610427565b825550505050565b600090565b6104e16104d4565b6104ec8184846104af565b505050565b5b81811015610510576105056000826104d9565b6001810190506104f2565b5050565b601f82111561055557610526816103f5565b61052f8461040a565b8101602085101561053e578190505b61055261054a8561040a565b8301826104f1565b50505b505050565b600082821c905092915050565b60006105786000198460080261055a565b1980831691505092915050565b60006105918383610567565b9150826002028217905092915050565b6105aa8261038a565b67ffffffffffffffff8111156105c3576105c2610174565b5b6105cd82546103c4565b6105d8828285610514565b600060209050601f83116001811461060b57600084156105f9578287015190505b6106038582610585565b86555061066b565b601f198416610619866103f5565b60005b828110156106415784890151825560018201915060208501945060208101905061061c565b8683101561065e578489015161065a601f891682610567565b8355505b6001600288020188555050505b50505050505056fea2646970667358221220abb61d227764b09dfce3e90f996e7f34035444e480142d39f9f7412ead7f24e064736f6c63430008130033",
  "immutableReferences": {},
  "source": "pragma solidity >=0.5.0 <0.9.0;\n\n// Creating a Smart Contract\ncontract Structresult{\n\nstruct result{\n\t// State variables\n\tuint bid;\n\tstring stid;\n\tstring  subid;\n\tstring  mark;\n\tstring date;\n\t\n\n}\nresult []emps;\n\nfunction addmark(uint bid, string memory stid,string memory subid,string memory mark,string memory date) public{\n\tresult memory e =result(bid,stid,subid,mark,date);\n\temps.push(e);\n}\n\n}\n",
  "sourcePath": "C:\\Project\\Online_exam_using_blockchain\\blockchain\\contracts\\examresult.sol",
  "compiler": {
    "name": "solc",
    "version": "0.8.19+commit.7dd6d404.Emscripten.clang"
  },
  "schemaVersion": "3.4.13",
  "updatedAt": "2023-05-08T04:30:15.771Z",
  "networkType": "ethereum",
  "devdoc": {
    "kind": "dev",
    "methods": {},
    "version": 1
  },
  "userdoc": {
    "kind": "user",
    "methods": {},
    "version": 1
  }
}